:100000003DC055C054C053C052C0E9C06AC04FC0C3
:100010004EC04DC04CC04BC04AC049C048C047C08C
:1000200046C045C044C005F80578053805180508E0
:100030000500058005C005E005F001000100010094
:1000400001000100010001000240048004A00380BF
:100050000100042003C004000200047003A0044057
:1000600002C0028003E0046004D00340030001806A
:10007000032004100360049004B004C011241FBEC8
:10008000CFEDCDBF10E0A0E6B0E0EAE1F4E002C0C1
:1000900005900D92AE36B107D9F710E0AEE6B0E0AC
:1000A00001C01D92AB37B107E1F7F4D0B4C1A8CFBE
:1000B0009C0110926E008AE882BF89B7826089BF76
:1000C00088EE93E0FC013197F1F721503040D1F7F1
:1000D00089B78D7F89BF9698089580B7826080BF69
:1000E00008951F920F920FB60F9211248F938AE8F2
:1000F00082BF80916E00823010F4969A01C096986B
:1001000080916E008F5F80936E0080916E008430CE
:1001100010F010926E008F910F900FBE0F901F90F5
:100120001895DF93CF9300D0CDB7DEB7682F70E07E
:10013000660F771F6A537040CE01019642E050E08F
:1001400061D139812A81AAE864E670E048EE53E083
:1001500027FF0EC010926E00A2BF89B7826089BFD0
:100160008CE291E0FA013197F1F70197D9F70DC0D0
:1001700010926E00A2BF89B7826089BF84E690E0CA
:10018000FA013197F1F70197D9F789B78D7F89BFC8
:10019000969888EE93E0FB013197F1F70197D9F734
:1001A000315011F0220FD4CF88EB9BE024E630E0F1
:1001B000F9013197F1F70197D9F70F900F90CF918F
:1001C000DF910895CF93DF93EC018991AADF8881B5
:1001D0008823D9F7DF91CF910895929808951F92BF
:1001E0000F920FB60F9211248F939F931DBC1CBCCE
:1001F00080917200882331F08150809372008823AF
:1002000009F49298809178008F5F809378008C3306
:1002100058F0809179008F5F809379008C3310F0D3
:100220001092790010927800809175008823E1F097
:10023000809170008F5F8093700090916F0089179C
:1002400098F010927500C09895988091720088235C
:1002500019F484E18093720080916400882321F076
:100260008091620080937900909179008091620082
:10027000981748F080916400882329F081E08093EA
:100280006300109279009F918F910F900FBE0F9095
:100290001F9018950F931F93CF93DF9381E887BB2F
:1002A0008CE781BB8EEF88BB12BA86B387E0809360
:1002B0006F00B79B04C082E08093710002C010926F
:1002C0007100B19B03C01092770003C081E080935E
:1002D0007700B39B00C081E080936400FEDE83E082
:1002E0008EBD80E889BF789401E014E1C4E6D0E0D7
:1002F00080B320917100422F50E090E082709070A6
:1003000030917A008417950749F0009373003323E6
:1003100069F400937A000093740008C0313031F41E
:10032000109274001092730010927A0090917400F1
:10033000913049F4909375001092760010927000FD
:10034000949A939802C09498939A80917500882308
:1003500019F1C09A959A929A10937200992321F5F7
:1003600080917700882301F1809176008823E1F461
:1003700088EB9BE0FE013197F1F70197D9F780B345
:1003800090E0827090708417950771F484E690E095
:100390008FDE0093760008C0C09895988091720017
:1003A000882311F41093720080916300882309F46C
:1003B0009FCF80916400882309F49ACFC09A959AC0
:1003C000929A1093720089B78F7789BF88EB9BE070
:1003D000FE013197F1F70197D9F780916B00909169
:1003E0006C00F0DE10926300C098959880917200C6
:1003F000882311F4109372001092780089B78068F6
:1004000089BF76CFFB01DC0102C005900D924150FF
:0A0410005040D8F70895F894FFCF8C
:0E041A008A000A0101535235574D006500005B
:00000001FF
